{
  "contractName": "SupplyChain",
  "abi": [
    {
      "inputs": [],
      "payable": false,
      "stateMutability": "nonpayable",
      "type": "constructor"
    },
    {
      "constant": true,
      "inputs": [
        {
          "internalType": "uint256",
          "name": "",
          "type": "uint256"
        }
      ],
      "name": "DIS",
      "outputs": [
        {
          "internalType": "address",
          "name": "addr",
          "type": "address"
        },
        {
          "internalType": "uint256",
          "name": "id",
          "type": "uint256"
        },
        {
          "internalType": "string",
          "name": "name",
          "type": "string"
        },
        {
          "internalType": "string",
          "name": "place",
          "type": "string"
        },
        {
          "internalType": "bool",
          "name": "isActive",
          "type": "bool"
        }
      ],
      "payable": false,
      "stateMutability": "view",
      "type": "function"
    },
    {
      "constant": true,
      "inputs": [
        {
          "internalType": "uint256",
          "name": "",
          "type": "uint256"
        }
      ],
      "name": "MAN",
      "outputs": [
        {
          "internalType": "address",
          "name": "addr",
          "type": "address"
        },
        {
          "internalType": "uint256",
          "name": "id",
          "type": "uint256"
        },
        {
          "internalType": "string",
          "name": "name",
          "type": "string"
        },
        {
          "internalType": "string",
          "name": "place",
          "type": "string"
        },
        {
          "internalType": "bool",
          "name": "isActive",
          "type": "bool"
        }
      ],
      "payable": false,
      "stateMutability": "view",
      "type": "function"
    },
    {
      "constant": true,
      "inputs": [
        {
          "internalType": "uint256",
          "name": "",
          "type": "uint256"
        }
      ],
      "name": "MedicineStock",
      "outputs": [
        {
          "internalType": "uint256",
          "name": "id",
          "type": "uint256"
        },
        {
          "internalType": "string",
          "name": "name",
          "type": "string"
        },
        {
          "internalType": "string",
          "name": "description",
          "type": "string"
        },
        {
          "internalType": "uint256",
          "name": "RMSid",
          "type": "uint256"
        },
        {
          "internalType": "uint256",
          "name": "MANid",
          "type": "uint256"
        },
        {
          "internalType": "uint256",
          "name": "DISid",
          "type": "uint256"
        },
        {
          "internalType": "uint256",
          "name": "RETid",
          "type": "uint256"
        },
        {
          "internalType": "enum SupplyChain.STAGE",
          "name": "stage",
          "type": "uint8"
        }
      ],
      "payable": false,
      "stateMutability": "view",
      "type": "function"
    },
    {
      "constant": true,
      "inputs": [],
      "name": "Owner",
      "outputs": [
        {
          "internalType": "address",
          "name": "",
          "type": "address"
        }
      ],
      "payable": false,
      "stateMutability": "view",
      "type": "function"
    },
    {
      "constant": true,
      "inputs": [
        {
          "internalType": "uint256",
          "name": "",
          "type": "uint256"
        }
      ],
      "name": "RET",
      "outputs": [
        {
          "internalType": "address",
          "name": "addr",
          "type": "address"
        },
        {
          "internalType": "uint256",
          "name": "id",
          "type": "uint256"
        },
        {
          "internalType": "string",
          "name": "name",
          "type": "string"
        },
        {
          "internalType": "string",
          "name": "place",
          "type": "string"
        },
        {
          "internalType": "bool",
          "name": "isActive",
          "type": "bool"
        }
      ],
      "payable": false,
      "stateMutability": "view",
      "type": "function"
    },
    {
      "constant": true,
      "inputs": [
        {
          "internalType": "uint256",
          "name": "",
          "type": "uint256"
        }
      ],
      "name": "RMS",
      "outputs": [
        {
          "internalType": "address",
          "name": "addr",
          "type": "address"
        },
        {
          "internalType": "uint256",
          "name": "id",
          "type": "uint256"
        },
        {
          "internalType": "string",
          "name": "name",
          "type": "string"
        },
        {
          "internalType": "string",
          "name": "place",
          "type": "string"
        },
        {
          "internalType": "bool",
          "name": "isActive",
          "type": "bool"
        }
      ],
      "payable": false,
      "stateMutability": "view",
      "type": "function"
    },
    {
      "constant": true,
      "inputs": [],
      "name": "disCtr",
      "outputs": [
        {
          "internalType": "uint256",
          "name": "",
          "type": "uint256"
        }
      ],
      "payable": false,
      "stateMutability": "view",
      "type": "function"
    },
    {
      "constant": true,
      "inputs": [],
      "name": "manCtr",
      "outputs": [
        {
          "internalType": "uint256",
          "name": "",
          "type": "uint256"
        }
      ],
      "payable": false,
      "stateMutability": "view",
      "type": "function"
    },
    {
      "constant": true,
      "inputs": [],
      "name": "medicineCtr",
      "outputs": [
        {
          "internalType": "uint256",
          "name": "",
          "type": "uint256"
        }
      ],
      "payable": false,
      "stateMutability": "view",
      "type": "function"
    },
    {
      "constant": true,
      "inputs": [],
      "name": "retCtr",
      "outputs": [
        {
          "internalType": "uint256",
          "name": "",
          "type": "uint256"
        }
      ],
      "payable": false,
      "stateMutability": "view",
      "type": "function"
    },
    {
      "constant": true,
      "inputs": [],
      "name": "rmsCtr",
      "outputs": [
        {
          "internalType": "uint256",
          "name": "",
          "type": "uint256"
        }
      ],
      "payable": false,
      "stateMutability": "view",
      "type": "function"
    },
    {
      "constant": true,
      "inputs": [
        {
          "internalType": "uint256",
          "name": "_medicineID",
          "type": "uint256"
        }
      ],
      "name": "showStage",
      "outputs": [
        {
          "internalType": "string",
          "name": "",
          "type": "string"
        }
      ],
      "payable": false,
      "stateMutability": "view",
      "type": "function"
    },
    {
      "constant": false,
      "inputs": [
        {
          "internalType": "address",
          "name": "_address",
          "type": "address"
        },
        {
          "internalType": "string",
          "name": "_name",
          "type": "string"
        },
        {
          "internalType": "string",
          "name": "_place",
          "type": "string"
        }
      ],
      "name": "addRMS",
      "outputs": [],
      "payable": false,
      "stateMutability": "nonpayable",
      "type": "function"
    },
    {
      "constant": false,
      "inputs": [
        {
          "internalType": "address",
          "name": "_address",
          "type": "address"
        },
        {
          "internalType": "string",
          "name": "_name",
          "type": "string"
        },
        {
          "internalType": "string",
          "name": "_place",
          "type": "string"
        }
      ],
      "name": "addManufacturer",
      "outputs": [],
      "payable": false,
      "stateMutability": "nonpayable",
      "type": "function"
    },
    {
      "constant": false,
      "inputs": [
        {
          "internalType": "address",
          "name": "_address",
          "type": "address"
        },
        {
          "internalType": "string",
          "name": "_name",
          "type": "string"
        },
        {
          "internalType": "string",
          "name": "_place",
          "type": "string"
        }
      ],
      "name": "addDistributor",
      "outputs": [],
      "payable": false,
      "stateMutability": "nonpayable",
      "type": "function"
    },
    {
      "constant": false,
      "inputs": [
        {
          "internalType": "address",
          "name": "_address",
          "type": "address"
        },
        {
          "internalType": "string",
          "name": "_name",
          "type": "string"
        },
        {
          "internalType": "string",
          "name": "_place",
          "type": "string"
        }
      ],
      "name": "addRetailer",
      "outputs": [],
      "payable": false,
      "stateMutability": "nonpayable",
      "type": "function"
    },
    {
      "constant": false,
      "inputs": [
        {
          "internalType": "uint256",
          "name": "_id",
          "type": "uint256"
        }
      ],
      "name": "toggleRMSStatus",
      "outputs": [],
      "payable": false,
      "stateMutability": "nonpayable",
      "type": "function"
    },
    {
      "constant": false,
      "inputs": [
        {
          "internalType": "uint256",
          "name": "_id",
          "type": "uint256"
        }
      ],
      "name": "toggleManufacturerStatus",
      "outputs": [],
      "payable": false,
      "stateMutability": "nonpayable",
      "type": "function"
    },
    {
      "constant": false,
      "inputs": [
        {
          "internalType": "uint256",
          "name": "_id",
          "type": "uint256"
        }
      ],
      "name": "toggleDistributorStatus",
      "outputs": [],
      "payable": false,
      "stateMutability": "nonpayable",
      "type": "function"
    },
    {
      "constant": false,
      "inputs": [
        {
          "internalType": "uint256",
          "name": "_id",
          "type": "uint256"
        }
      ],
      "name": "toggleRetailerStatus",
      "outputs": [],
      "payable": false,
      "stateMutability": "nonpayable",
      "type": "function"
    },
    {
      "constant": false,
      "inputs": [
        {
          "internalType": "uint256",
          "name": "_medicineID",
          "type": "uint256"
        }
      ],
      "name": "RMSsupply",
      "outputs": [],
      "payable": false,
      "stateMutability": "nonpayable",
      "type": "function"
    },
    {
      "constant": false,
      "inputs": [
        {
          "internalType": "uint256",
          "name": "_medicineID",
          "type": "uint256"
        }
      ],
      "name": "Manufacturing",
      "outputs": [],
      "payable": false,
      "stateMutability": "nonpayable",
      "type": "function"
    },
    {
      "constant": false,
      "inputs": [
        {
          "internalType": "uint256",
          "name": "_medicineID",
          "type": "uint256"
        }
      ],
      "name": "Distribute",
      "outputs": [],
      "payable": false,
      "stateMutability": "nonpayable",
      "type": "function"
    },
    {
      "constant": false,
      "inputs": [
        {
          "internalType": "uint256",
          "name": "_medicineID",
          "type": "uint256"
        }
      ],
      "name": "Retail",
      "outputs": [],
      "payable": false,
      "stateMutability": "nonpayable",
      "type": "function"
    },
    {
      "constant": false,
      "inputs": [
        {
          "internalType": "uint256",
          "name": "_medicineID",
          "type": "uint256"
        }
      ],
      "name": "sold",
      "outputs": [],
      "payable": false,
      "stateMutability": "nonpayable",
      "type": "function"
    },
    {
      "constant": false,
      "inputs": [
        {
          "internalType": "string",
          "name": "_name",
          "type": "string"
        },
        {
          "internalType": "string",
          "name": "_description",
          "type": "string"
        }
      ],
      "name": "addMedicine",
      "outputs": [],
      "payable": false,
      "stateMutability": "nonpayable",
      "type": "function"
    }
  ],
  "bytecode": "0x60806040526000600155600060025560006003556000600455600060055534801561002957600080fd5b50336000806101000a81548173ffffffffffffffffffffffffffffffffffffffff021916908373ffffffffffffffffffffffffffffffffffffffff1602179055506140e5806100796000396000f3fe608060405234801561001057600080fd5b506004361061018e5760003560e01c8063857ddb04116100de578063a95f29d911610097578063dd28639811610071578063dd28639814610f15578063e101a2e014610f33578063eb1a06b514610fda578063eef5cb40146111255761018e565b8063a95f29d914610d55578063b4a99a4e14610d73578063cc40306914610dbd5761018e565b8063857ddb04146109d957806386c1827514610b4b5780638f4183cc14610b795780639c03facb14610ccb578063a41a83d314610cf9578063a48d335a14610d275761018e565b80633d753a1c1161014b5780634def474a116101255780634def474a146106c357806359bf286f146106f15780636a992c9f146108495780637e43d94d146109bb5761018e565b80633d753a1c146106495780633dbf0acf14610677578063438e9c4d146106a55761018e565b806308c9e03b146101935780632a4af440146101c15780632b0187ac146103335780632b70b08d1461048b5780632bdb2e6b146105fd5780633aca334e1461061b575b600080fd5b6101bf600480360360208110156101a957600080fd5b810190808035906020019092919050505061127d565b005b610331600480360360608110156101d757600080fd5b81019080803573ffffffffffffffffffffffffffffffffffffffff1690602001909291908035906020019064010000000081111561021457600080fd5b82018360208201111561022657600080fd5b8035906020019184600183028401116401000000008311171561024857600080fd5b91908080601f016020809104026020016040519081016040528093929190818152602001838380828437600081840152601f19601f820116905080830192505050505050509192919290803590602001906401000000008111156102ab57600080fd5b8201836020820111156102bd57600080fd5b803590602001918460018302840111640100000000831117156102df57600080fd5b91908080601f016020809104026020016040519081016040528093929190818152602001838380828437600081840152601f19601f8201169050808301925050505050505091929192905050506113af565b005b61035f6004803603602081101561034957600080fd5b810190808035906020019092919050505061161f565b604051808673ffffffffffffffffffffffffffffffffffffffff1673ffffffffffffffffffffffffffffffffffffffff168152602001858152602001806020018060200184151515158152602001838103835286818151815260200191508051906020019080838360005b838110156103e55780820151818401526020810190506103ca565b50505050905090810190601f1680156104125780820380516001836020036101000a031916815260200191505b50838103825285818151815260200191508051906020019080838360005b8381101561044b578082015181840152602081019050610430565b50505050905090810190601f1680156104785780820380516001836020036101000a031916815260200191505b5097505050505050505060405180910390f35b6105fb600480360360608110156104a157600080fd5b81019080803573ffffffffffffffffffffffffffffffffffffffff169060200190929190803590602001906401000000008111156104de57600080fd5b8201836020820111156104f057600080fd5b8035906020019184600183028401116401000000008311171561051257600080fd5b91908080601f016020809104026020016040519081016040528093929190818152602001838380828437600081840152601f19601f8201169050808301925050505050505091929192908035906020019064010000000081111561057557600080fd5b82018360208201111561058757600080fd5b803590602001918460018302840111640100000000831117156105a957600080fd5b91908080601f016020809104026020016040519081016040528093929190818152602001838380828437600081840152601f19601f8201169050808301925050505050505091929192905050506117b2565b005b610605611a22565b6040518082815260200191505060405180910390f35b6106476004803603602081101561063157600080fd5b8101908080359060200190929190505050611a28565b005b6106756004803603602081101561065f57600080fd5b8101908080359060200190929190505050611b5a565b005b6106a36004803603602081101561068d57600080fd5b8101908080359060200190929190505050611da6565b005b6106ad611ed8565b6040518082815260200191505060405180910390f35b6106ef600480360360208110156106d957600080fd5b8101908080359060200190929190505050611ede565b005b61071d6004803603602081101561070757600080fd5b810190808035906020019092919050505061212a565b604051808673ffffffffffffffffffffffffffffffffffffffff1673ffffffffffffffffffffffffffffffffffffffff168152602001858152602001806020018060200184151515158152602001838103835286818151815260200191508051906020019080838360005b838110156107a3578082015181840152602081019050610788565b50505050905090810190601f1680156107d05780820380516001836020036101000a031916815260200191505b50838103825285818151815260200191508051906020019080838360005b838110156108095780820151818401526020810190506107ee565b50505050905090810190601f1680156108365780820380516001836020036101000a031916815260200191505b5097505050505050505060405180910390f35b6109b96004803603606081101561085f57600080fd5b81019080803573ffffffffffffffffffffffffffffffffffffffff1690602001909291908035906020019064010000000081111561089c57600080fd5b8201836020820111156108ae57600080fd5b803590602001918460018302840111640100000000831117156108d057600080fd5b91908080601f016020809104026020016040519081016040528093929190818152602001838380828437600081840152601f19601f8201169050808301925050505050505091929192908035906020019064010000000081111561093357600080fd5b82018360208201111561094557600080fd5b8035906020019184600183028401116401000000008311171561096757600080fd5b91908080601f016020809104026020016040519081016040528093929190818152602001838380828437600081840152601f19601f8201169050808301925050505050505091929192905050506122bd565b005b6109c361252d565b6040518082815260200191505060405180910390f35b610b49600480360360608110156109ef57600080fd5b81019080803573ffffffffffffffffffffffffffffffffffffffff16906020019092919080359060200190640100000000811115610a2c57600080fd5b820183602082011115610a3e57600080fd5b80359060200191846001830284011164010000000083111715610a6057600080fd5b91908080601f016020809104026020016040519081016040528093929190818152602001838380828437600081840152601f19601f82011690508083019250505050505050919291929080359060200190640100000000811115610ac357600080fd5b820183602082011115610ad557600080fd5b80359060200191846001830284011164010000000083111715610af757600080fd5b91908080601f016020809104026020016040519081016040528093929190818152602001838380828437600081840152601f19601f820116905080830192505050505050509192919290505050612533565b005b610b7760048036036020811015610b6157600080fd5b81019080803590602001909291905050506127a3565b005b610cc960048036036040811015610b8f57600080fd5b8101908080359060200190640100000000811115610bac57600080fd5b820183602082011115610bbe57600080fd5b80359060200191846001830284011164010000000083111715610be057600080fd5b91908080601f016020809104026020016040519081016040528093929190818152602001838380828437600081840152601f19601f82011690508083019250505050505050919291929080359060200190640100000000811115610c4357600080fd5b820183602082011115610c5557600080fd5b80359060200191846001830284011164010000000083111715610c7757600080fd5b91908080601f016020809104026020016040519081016040528093929190818152602001838380828437600081840152601f19601f8201169050808301925050505050505091929192905050506129ef565b005b610cf760048036036020811015610ce157600080fd5b8101908080359060200190929190505050612b90565b005b610d2560048036036020811015610d0f57600080fd5b8101908080359060200190929190505050612e2f565b005b610d5360048036036020811015610d3d57600080fd5b8101908080359060200190929190505050612f61565b005b610d5d613190565b6040518082815260200191505060405180910390f35b610d7b613196565b604051808273ffffffffffffffffffffffffffffffffffffffff1673ffffffffffffffffffffffffffffffffffffffff16815260200191505060405180910390f35b610de960048036036020811015610dd357600080fd5b81019080803590602001909291905050506131bb565b604051808673ffffffffffffffffffffffffffffffffffffffff1673ffffffffffffffffffffffffffffffffffffffff168152602001858152602001806020018060200184151515158152602001838103835286818151815260200191508051906020019080838360005b83811015610e6f578082015181840152602081019050610e54565b50505050905090810190601f168015610e9c5780820380516001836020036101000a031916815260200191505b50838103825285818151815260200191508051906020019080838360005b83811015610ed5578082015181840152602081019050610eba565b50505050905090810190601f168015610f025780820380516001836020036101000a031916815260200191505b5097505050505050505060405180910390f35b610f1d61334e565b6040518082815260200191505060405180910390f35b610f5f60048036036020811015610f4957600080fd5b8101908080359060200190929190505050613354565b6040518080602001828103825283818151815260200191508051906020019080838360005b83811015610f9f578082015181840152602081019050610f84565b50505050905090810190601f168015610fcc5780820380516001836020036101000a031916815260200191505b509250505060405180910390f35b61100660048036036020811015610ff057600080fd5b8101908080359060200190929190505050613664565b60405180898152602001806020018060200188815260200187815260200186815260200185815260200184600581111561103c57fe5b60ff16815260200183810383528a818151815260200191508051906020019080838360005b8381101561107c578082015181840152602081019050611061565b50505050905090810190601f1680156110a95780820380516001836020036101000a031916815260200191505b50838103825289818151815260200191508051906020019080838360005b838110156110e25780820151818401526020810190506110c7565b50505050905090810190601f16801561110f5780820380516001836020036101000a031916815260200191505b509a505050505050505050505060405180910390f35b6111516004803603602081101561113b57600080fd5b81019080803590602001909291905050506137e9565b604051808673ffffffffffffffffffffffffffffffffffffffff1673ffffffffffffffffffffffffffffffffffffffff168152602001858152602001806020018060200184151515158152602001838103835286818151815260200191508051906020019080838360005b838110156111d75780820151818401526020810190506111bc565b50505050905090810190601f1680156112045780820380516001836020036101000a031916815260200191505b50838103825285818151815260200191508051906020019080838360005b8381101561123d578082015181840152602081019050611222565b50505050905090810190601f16801561126a5780820380516001836020036101000a031916815260200191505b5097505050505050505060405180910390f35b6000809054906101000a900473ffffffffffffffffffffffffffffffffffffffff1673ffffffffffffffffffffffffffffffffffffffff163373ffffffffffffffffffffffffffffffffffffffff16146112d657600080fd5b6000811180156112e857506002548111155b61135a576040517f08c379a000000000000000000000000000000000000000000000000000000000815260040180806020018281038252600e8152602001807f496e76616c696420524d5320494400000000000000000000000000000000000081525060200191505060405180910390fd5b6007600082815260200190815260200160002060040160009054906101000a900460ff16156007600083815260200190815260200160002060040160006101000a81548160ff02191690831515021790555050565b6000809054906101000a900473ffffffffffffffffffffffffffffffffffffffff1673ffffffffffffffffffffffffffffffffffffffff163373ffffffffffffffffffffffffffffffffffffffff161461140857600080fd5b600c60008473ffffffffffffffffffffffffffffffffffffffff1673ffffffffffffffffffffffffffffffffffffffff16815260200190815260200160002060009054906101000a900460ff16156114ab576040517f08c379a00000000000000000000000000000000000000000000000000000000081526004018080602001828103825260318152602001806140596031913960400191505060405180910390fd5b6004600081548092919060010191905055506040518060a001604052808473ffffffffffffffffffffffffffffffffffffffff168152602001600454815260200183815260200182815260200160011515815250600b6000600454815260200190815260200160002060008201518160000160006101000a81548173ffffffffffffffffffffffffffffffffffffffff021916908373ffffffffffffffffffffffffffffffffffffffff160217905550602082015181600101556040820151816002019080519060200190611581929190613c80565b50606082015181600301908051906020019061159e929190613c80565b5060808201518160040160006101000a81548160ff0219169083151502179055509050506001600c60008573ffffffffffffffffffffffffffffffffffffffff1673ffffffffffffffffffffffffffffffffffffffff16815260200190815260200160002060006101000a81548160ff021916908315150217905550505050565b600b6020528060005260406000206000915090508060000160009054906101000a900473ffffffffffffffffffffffffffffffffffffffff1690806001015490806002018054600181600116156101000203166002900480601f0160208091040260200160405190810160405280929190818152602001828054600181600116156101000203166002900480156116f75780601f106116cc576101008083540402835291602001916116f7565b820191906000526020600020905b8154815290600101906020018083116116da57829003601f168201915b505050505090806003018054600181600116156101000203166002900480601f0160208091040260200160405190810160405280929190818152602001828054600181600116156101000203166002900480156117955780601f1061176a57610100808354040283529160200191611795565b820191906000526020600020905b81548152906001019060200180831161177857829003601f168201915b5050505050908060040160009054906101000a900460ff16905085565b6000809054906101000a900473ffffffffffffffffffffffffffffffffffffffff1673ffffffffffffffffffffffffffffffffffffffff163373ffffffffffffffffffffffffffffffffffffffff161461180b57600080fd5b600860008473ffffffffffffffffffffffffffffffffffffffff1673ffffffffffffffffffffffffffffffffffffffff16815260200190815260200160002060009054906101000a900460ff16156118ae576040517f08c379a0000000000000000000000000000000000000000000000000000000008152600401808060200182810382526029815260200180613e626029913960400191505060405180910390fd5b6002600081548092919060010191905055506040518060a001604052808473ffffffffffffffffffffffffffffffffffffffff16815260200160025481526020018381526020018281526020016001151581525060076000600254815260200190815260200160002060008201518160000160006101000a81548173ffffffffffffffffffffffffffffffffffffffff021916908373ffffffffffffffffffffffffffffffffffffffff160217905550602082015181600101556040820151816002019080519060200190611984929190613c80565b5060608201518160030190805190602001906119a1929190613c80565b5060808201518160040160006101000a81548160ff0219169083151502179055509050506001600860008573ffffffffffffffffffffffffffffffffffffffff1673ffffffffffffffffffffffffffffffffffffffff16815260200190815260200160002060006101000a81548160ff021916908315150217905550505050565b60045481565b6000809054906101000a900473ffffffffffffffffffffffffffffffffffffffff1673ffffffffffffffffffffffffffffffffffffffff163373ffffffffffffffffffffffffffffffffffffffff1614611a8157600080fd5b600081118015611a9357506003548111155b611b05576040517f08c379a00000000000000000000000000000000000000000000000000000000081526004018080602001828103825260178152602001807f496e76616c6964204d616e75666163747572657220494400000000000000000081525060200191505060405180910390fd5b6009600082815260200190815260200160002060040160009054906101000a900460ff16156009600083815260200190815260200160002060040160006101000a81548160ff02191690831515021790555050565b600081118015611b6c57506001548111155b611bde576040517f08c379a000000000000000000000000000000000000000000000000000000000815260040180806020018281038252601b8152602001807f52657461696c3a20496e76616c6964204d65646963696e65204944000000000081525060200191505060405180910390fd5b6000611be93361397c565b905060008111611c44576040517f08c379a000000000000000000000000000000000000000000000000000000000815260040180806020018281038252602b815260200180613fd2602b913960400191505060405180910390fd5b600d600082815260200190815260200160002060040160009054906101000a900460ff16611cbd576040517f08c379a0000000000000000000000000000000000000000000000000000000008152600401808060200182810382526023815260200180613f4b6023913960400191505060405180910390fd5b60036005811115611cca57fe5b6006600084815260200190815260200160002060070160009054906101000a900460ff166005811115611cf957fe5b14611d4f576040517f08c379a000000000000000000000000000000000000000000000000000000000815260040180806020018281038252602a815260200180613f21602a913960400191505060405180910390fd5b80600660008481526020019081526020016000206006018190555060046006600084815260200190815260200160002060070160006101000a81548160ff02191690836005811115611d9d57fe5b02179055505050565b6000809054906101000a900473ffffffffffffffffffffffffffffffffffffffff1673ffffffffffffffffffffffffffffffffffffffff163373ffffffffffffffffffffffffffffffffffffffff1614611dff57600080fd5b600081118015611e1157506004548111155b611e83576040517f08c379a00000000000000000000000000000000000000000000000000000000081526004018080602001828103825260168152602001807f496e76616c6964204469737472696275746f722049440000000000000000000081525060200191505060405180910390fd5b600b600082815260200190815260200160002060040160009054906101000a900460ff1615600b600083815260200190815260200160002060040160006101000a81548160ff02191690831515021790555050565b60035481565b600081118015611ef057506001548111155b611f62576040517f08c379a000000000000000000000000000000000000000000000000000000000815260040180806020018281038252601f8152602001807f446973747269627574653a20496e76616c6964204d65646963696e652049440081525060200191505060405180910390fd5b6000611f6d33613a3d565b905060008111611fc8576040517f08c379a0000000000000000000000000000000000000000000000000000000008152600401808060200182810382526032815260200180613eef6032913960400191505060405180910390fd5b600b600082815260200190815260200160002060040160009054906101000a900460ff16612041576040517f08c379a000000000000000000000000000000000000000000000000000000000815260040180806020018281038252602781526020018061408a6027913960400191505060405180910390fd5b6002600581111561204e57fe5b6006600084815260200190815260200160002060070160009054906101000a900460ff16600581111561207d57fe5b146120d3576040517f08c379a000000000000000000000000000000000000000000000000000000000815260040180806020018281038252602d815260200180613d96602d913960400191505060405180910390fd5b80600660008481526020019081526020016000206005018190555060036006600084815260200190815260200160002060070160006101000a81548160ff0219169083600581111561212157fe5b02179055505050565b600d6020528060005260406000206000915090508060000160009054906101000a900473ffffffffffffffffffffffffffffffffffffffff1690806001015490806002018054600181600116156101000203166002900480601f0160208091040260200160405190810160405280929190818152602001828054600181600116156101000203166002900480156122025780601f106121d757610100808354040283529160200191612202565b820191906000526020600020905b8154815290600101906020018083116121e557829003601f168201915b505050505090806003018054600181600116156101000203166002900480601f0160208091040260200160405190810160405280929190818152602001828054600181600116156101000203166002900480156122a05780601f10612275576101008083540402835291602001916122a0565b820191906000526020600020905b81548152906001019060200180831161228357829003601f168201915b5050505050908060040160009054906101000a900460ff16905085565b6000809054906101000a900473ffffffffffffffffffffffffffffffffffffffff1673ffffffffffffffffffffffffffffffffffffffff163373ffffffffffffffffffffffffffffffffffffffff161461231657600080fd5b600a60008473ffffffffffffffffffffffffffffffffffffffff1673ffffffffffffffffffffffffffffffffffffffff16815260200190815260200160002060009054906101000a900460ff16156123b9576040517f08c379a00000000000000000000000000000000000000000000000000000000081526004018080602001828103825260328152602001806140276032913960400191505060405180910390fd5b6003600081548092919060010191905055506040518060a001604052808473ffffffffffffffffffffffffffffffffffffffff16815260200160035481526020018381526020018281526020016001151581525060096000600354815260200190815260200160002060008201518160000160006101000a81548173ffffffffffffffffffffffffffffffffffffffff021916908373ffffffffffffffffffffffffffffffffffffffff16021790555060208201518160010155604082015181600201908051906020019061248f929190613c80565b5060608201518160030190805190602001906124ac929190613c80565b5060808201518160040160006101000a81548160ff0219169083151502179055509050506001600a60008573ffffffffffffffffffffffffffffffffffffffff1673ffffffffffffffffffffffffffffffffffffffff16815260200190815260200160002060006101000a81548160ff021916908315150217905550505050565b60055481565b6000809054906101000a900473ffffffffffffffffffffffffffffffffffffffff1673ffffffffffffffffffffffffffffffffffffffff163373ffffffffffffffffffffffffffffffffffffffff161461258c57600080fd5b600e60008473ffffffffffffffffffffffffffffffffffffffff1673ffffffffffffffffffffffffffffffffffffffff16815260200190815260200160002060009054906101000a900460ff161561262f576040517f08c379a000000000000000000000000000000000000000000000000000000000815260040180806020018281038252602e815260200180613f6e602e913960400191505060405180910390fd5b6005600081548092919060010191905055506040518060a001604052808473ffffffffffffffffffffffffffffffffffffffff168152602001600554815260200183815260200182815260200160011515815250600d6000600554815260200190815260200160002060008201518160000160006101000a81548173ffffffffffffffffffffffffffffffffffffffff021916908373ffffffffffffffffffffffffffffffffffffffff160217905550602082015181600101556040820151816002019080519060200190612705929190613c80565b506060820151816003019080519060200190612722929190613c80565b5060808201518160040160006101000a81548160ff0219169083151502179055509050506001600e60008573ffffffffffffffffffffffffffffffffffffffff1673ffffffffffffffffffffffffffffffffffffffff16815260200190815260200160002060006101000a81548160ff021916908315150217905550505050565b6000811180156127b557506001548111155b612827576040517f08c379a000000000000000000000000000000000000000000000000000000000815260040180806020018281038252601e8152602001807f524d53737570706c793a20496e76616c6964204d65646963696e65204944000081525060200191505060405180910390fd5b600061283233613afe565b90506000811161288d576040517f08c379a0000000000000000000000000000000000000000000000000000000008152600401808060200182810382526029815260200180613e8b6029913960400191505060405180910390fd5b6007600082815260200190815260200160002060040160009054906101000a900460ff16612906576040517f08c379a0000000000000000000000000000000000000000000000000000000008152600401808060200182810382526026815260200180613d266026913960400191505060405180910390fd5b6000600581111561291357fe5b6006600084815260200190815260200160002060070160009054906101000a900460ff16600581111561294257fe5b14612998576040517f08c379a0000000000000000000000000000000000000000000000000000000008152600401808060200182810382526025815260200180613e1b6025913960400191505060405180910390fd5b80600660008481526020019081526020016000206003018190555060016006600084815260200190815260200160002060070160006101000a81548160ff021916908360058111156129e657fe5b02179055505050565b6000809054906101000a900473ffffffffffffffffffffffffffffffffffffffff1673ffffffffffffffffffffffffffffffffffffffff163373ffffffffffffffffffffffffffffffffffffffff1614612a4857600080fd5b6000600254118015612a5c57506000600354115b8015612a6a57506000600454115b8015612a7857506000600554115b612a8157600080fd5b60016000815480929190600101919050555060405180610100016040528060015481526020018381526020018281526020016000815260200160008152602001600081526020016000815260200160006005811115612adc57fe5b815250600660006001548152602001908152602001600020600082015181600001556020820151816001019080519060200190612b1a929190613c80565b506040820151816002019080519060200190612b37929190613c80565b50606082015181600301556080820151816004015560a0820151816005015560c0820151816006015560e08201518160070160006101000a81548160ff02191690836005811115612b8457fe5b02179055509050505050565b600081118015612ba257506001548111155b612c14576040517f08c379a00000000000000000000000000000000000000000000000000000000081526004018080602001828103825260198152602001807f536f6c643a20496e76616c6964204d65646963696e652049440000000000000081525060200191505060405180910390fd5b6000612c1f3361397c565b905060008111612c7a576040517f08c379a0000000000000000000000000000000000000000000000000000000008152600401808060200182810382526029815260200180613d6d6029913960400191505060405180910390fd5b600d600082815260200190815260200160002060040160009054906101000a900460ff16612cf3576040517f08c379a0000000000000000000000000000000000000000000000000000000008152600401808060200182810382526021815260200180613d4c6021913960400191505060405180910390fd5b60066000838152602001908152602001600020600601548114612d61576040517f08c379a000000000000000000000000000000000000000000000000000000000815260040180806020018281038252603b815260200180613eb4603b913960400191505060405180910390fd5b60046005811115612d6e57fe5b6006600084815260200190815260200160002060070160009054906101000a900460ff166005811115612d9d57fe5b14612df3576040517f08c379a0000000000000000000000000000000000000000000000000000000008152600401808060200182810382526022815260200180613e406022913960400191505060405180910390fd5b60056006600084815260200190815260200160002060070160006101000a81548160ff02191690836005811115612e2657fe5b02179055505050565b6000809054906101000a900473ffffffffffffffffffffffffffffffffffffffff1673ffffffffffffffffffffffffffffffffffffffff163373ffffffffffffffffffffffffffffffffffffffff1614612e8857600080fd5b600081118015612e9a57506005548111155b612f0c576040517f08c379a00000000000000000000000000000000000000000000000000000000081526004018080602001828103825260138152602001807f496e76616c69642052657461696c65722049440000000000000000000000000081525060200191505060405180910390fd5b600d600082815260200190815260200160002060040160009054906101000a900460ff1615600d600083815260200190815260200160002060040160006101000a81548160ff02191690831515021790555050565b600081118015612f7357506001548111155b612fc8576040517f08c379a0000000000000000000000000000000000000000000000000000000008152600401808060200182810382526022815260200180613df96022913960400191505060405180910390fd5b6000612fd333613bbf565b90506000811161302e576040517f08c379a0000000000000000000000000000000000000000000000000000000008152600401808060200182810382526036815260200180613dc36036913960400191505060405180910390fd5b6009600082815260200190815260200160002060040160009054906101000a900460ff166130a7576040517f08c379a000000000000000000000000000000000000000000000000000000000815260040180806020018281038252602a815260200180613ffd602a913960400191505060405180910390fd5b600160058111156130b457fe5b6006600084815260200190815260200160002060070160009054906101000a900460ff1660058111156130e357fe5b14613139576040517f08c379a0000000000000000000000000000000000000000000000000000000008152600401808060200182810382526036815260200180613f9c6036913960400191505060405180910390fd5b80600660008481526020019081526020016000206004018190555060026006600084815260200190815260200160002060070160006101000a81548160ff0219169083600581111561318757fe5b02179055505050565b60015481565b6000809054906101000a900473ffffffffffffffffffffffffffffffffffffffff1681565b60096020528060005260406000206000915090508060000160009054906101000a900473ffffffffffffffffffffffffffffffffffffffff1690806001015490806002018054600181600116156101000203166002900480601f0160208091040260200160405190810160405280929190818152602001828054600181600116156101000203166002900480156132935780601f1061326857610100808354040283529160200191613293565b820191906000526020600020905b81548152906001019060200180831161327657829003601f168201915b505050505090806003018054600181600116156101000203166002900480601f0160208091040260200160405190810160405280929190818152602001828054600181600116156101000203166002900480156133315780601f1061330657610100808354040283529160200191613331565b820191906000526020600020905b81548152906001019060200180831161331457829003601f168201915b5050505050908060040160009054906101000a900460ff16905085565b60025481565b606060006001541161336557600080fd5b6000600581111561337257fe5b6006600084815260200190815260200160002060070160009054906101000a900460ff1660058111156133a157fe5b14156133e4576040518060400160405280601081526020017f4d65646963696e65204f72646572656400000000000000000000000000000000815250905061365f565b600160058111156133f157fe5b6006600084815260200190815260200160002060070160009054906101000a900460ff16600581111561342057fe5b1415613463576040518060400160405280601981526020017f526177204d6174657269616c20537570706c7920537461676500000000000000815250905061365f565b6002600581111561347057fe5b6006600084815260200190815260200160002060070160009054906101000a900460ff16600581111561349f57fe5b14156134e2576040518060400160405280601381526020017f4d616e75666163747572696e6720537461676500000000000000000000000000815250905061365f565b600360058111156134ef57fe5b6006600084815260200190815260200160002060070160009054906101000a900460ff16600581111561351e57fe5b1415613561576040518060400160405280601281526020017f446973747269627574696f6e2053746167650000000000000000000000000000815250905061365f565b6004600581111561356e57fe5b6006600084815260200190815260200160002060070160009054906101000a900460ff16600581111561359d57fe5b14156135e0576040518060400160405280600c81526020017f52657461696c2053746167650000000000000000000000000000000000000000815250905061365f565b6005808111156135ec57fe5b6006600084815260200190815260200160002060070160009054906101000a900460ff16600581111561361b57fe5b141561365e576040518060400160405280600d81526020017f4d65646963696e6520536f6c6400000000000000000000000000000000000000815250905061365f565b5b919050565b6006602052806000526040600020600091509050806000015490806001018054600181600116156101000203166002900480601f0160208091040260200160405190810160405280929190818152602001828054600181600116156101000203166002900480156137165780601f106136eb57610100808354040283529160200191613716565b820191906000526020600020905b8154815290600101906020018083116136f957829003601f168201915b505050505090806002018054600181600116156101000203166002900480601f0160208091040260200160405190810160405280929190818152602001828054600181600116156101000203166002900480156137b45780601f10613789576101008083540402835291602001916137b4565b820191906000526020600020905b81548152906001019060200180831161379757829003601f168201915b5050505050908060030154908060040154908060050154908060060154908060070160009054906101000a900460ff16905088565b60076020528060005260406000206000915090508060000160009054906101000a900473ffffffffffffffffffffffffffffffffffffffff1690806001015490806002018054600181600116156101000203166002900480601f0160208091040260200160405190810160405280929190818152602001828054600181600116156101000203166002900480156138c15780601f10613896576101008083540402835291602001916138c1565b820191906000526020600020905b8154815290600101906020018083116138a457829003601f168201915b505050505090806003018054600181600116156101000203166002900480601f01602080910402602001604051908101604052809291908181526020018280546001816001161561010002031660029004801561395f5780601f106139345761010080835404028352916020019161395f565b820191906000526020600020905b81548152906001019060200180831161394257829003601f168201915b5050505050908060040160009054906101000a900460ff16905085565b6000806005541161398c57600080fd5b6000600190505b6005548111613a32578273ffffffffffffffffffffffffffffffffffffffff16600d600083815260200190815260200160002060000160009054906101000a900473ffffffffffffffffffffffffffffffffffffffff1673ffffffffffffffffffffffffffffffffffffffff161415613a2557600d600082815260200190815260200160002060010154915050613a38565b8080600101915050613993565b50600090505b919050565b60008060045411613a4d57600080fd5b6000600190505b6004548111613af3578273ffffffffffffffffffffffffffffffffffffffff16600b600083815260200190815260200160002060000160009054906101000a900473ffffffffffffffffffffffffffffffffffffffff1673ffffffffffffffffffffffffffffffffffffffff161415613ae657600b600082815260200190815260200160002060010154915050613af9565b8080600101915050613a54565b50600090505b919050565b60008060025411613b0e57600080fd5b6000600190505b6002548111613bb4578273ffffffffffffffffffffffffffffffffffffffff166007600083815260200190815260200160002060000160009054906101000a900473ffffffffffffffffffffffffffffffffffffffff1673ffffffffffffffffffffffffffffffffffffffff161415613ba7576007600082815260200190815260200160002060010154915050613bba565b8080600101915050613b15565b50600090505b919050565b60008060035411613bcf57600080fd5b6000600190505b6003548111613c75578273ffffffffffffffffffffffffffffffffffffffff166009600083815260200190815260200160002060000160009054906101000a900473ffffffffffffffffffffffffffffffffffffffff1673ffffffffffffffffffffffffffffffffffffffff161415613c68576009600082815260200190815260200160002060010154915050613c7b565b8080600101915050613bd6565b50600090505b919050565b828054600181600116156101000203166002900490600052602060002090601f016020900481019282601f10613cc157805160ff1916838001178555613cef565b82800160010185558215613cef579182015b82811115613cee578251825591602001919060010190613cd3565b5b509050613cfc9190613d00565b5090565b613d2291905b80821115613d1e576000816000905550600101613d06565b5090565b9056fe524d53737570706c793a20596f7572206163636f756e74206973206465616374697661746564536f6c643a20596f7572206163636f756e74206973206465616374697661746564536f6c643a2043616c6c6572206973206e6f74206120726567697374657265642052657461696c6572446973747269627574653a204d65646963696e65206e6f7420696e204d616e75666163747572652073746167654d616e75666163747572696e673a2043616c6c6572206973206e6f7420612072656769737465726564204d616e7566616374757265724d616e75666163747572696e673a20496e76616c6964204d65646963696e65204944524d53737570706c793a204d65646963696e65206e6f7420696e20496e6974207374616765536f6c643a204d65646963696e65206e6f7420696e2052657461696c20737461676554686973206164647265737320697320616c7265616479207265676973746572656420617320524d53524d53737570706c793a2043616c6c6572206973206e6f742061207265676973746572656420524d53536f6c643a2043616c6c6572206973206e6f74207468652061737369676e65642052657461696c657220666f722074686973206d65646963696e65446973747269627574653a2043616c6c6572206973206e6f7420612072656769737465726564204469737472696275746f7252657461696c3a204d65646963696e65206e6f7420696e20446973747269627574696f6e20737461676552657461696c3a20596f7572206163636f756e7420697320646561637469766174656454686973206164647265737320697320616c726561647920726567697374657265642061732052657461696c65724d616e75666163747572696e673a204d65646963696e65206e6f7420696e205261774d6174657269616c537570706c7920737461676552657461696c3a2043616c6c6572206973206e6f74206120726567697374657265642052657461696c65724d616e75666163747572696e673a20596f7572206163636f756e7420697320646561637469766174656454686973206164647265737320697320616c72656164792072656769737465726564206173204d616e75666163747572657254686973206164647265737320697320616c72656164792072656769737465726564206173204469737472696275746f72446973747269627574653a20596f7572206163636f756e74206973206465616374697661746564a265627a7a72315820b11758ff36fa20c4a94a11584ab0572bc25ed07225e653faf82bd18984bcc80364736f6c63430005100032",
  "source": "// SPDX-License-Identifier: MIT\npragma solidity >=0.4.22 <0.9.0;\n\ncontract SupplyChain {\n    //Smart Contract owner will be the person who deploys the contract only he can authorize various roles like retailer, Manufacturer,etc\n    address public Owner;\n\n    //note this constructor will be called when smart contract will be deployed on blockchain\n    constructor() public {\n        Owner = msg.sender;\n    }\n\n    //Roles (flow of pharma supply chain)\n    // RawMaterialSupplier; //This is where Manufacturer will get raw materials to make medicines\n    // Manufacturer;  //Various WHO guidelines should be followed by this person\n    // Distributor; //This guy distributes the medicines to retailers\n    // Retailer; //Normal customer buys from the retailer\n\n    //modifier to make sure only the owner is using the function\n    modifier onlyByOwner() {\n        require(msg.sender == Owner);\n        _;\n    }\n\n    //stages of a medicine in pharma supply chain\n    enum STAGE {\n        Init,\n        RawMaterialSupply,\n        Manufacture,\n        Distribution,\n        Retail,\n        sold\n    }\n    //using this we are going to track every single medicine the owner orders\n\n    //Medicine count\n    uint256 public medicineCtr = 0;\n    //Raw material supplier count\n    uint256 public rmsCtr = 0;\n    //Manufacturer count\n    uint256 public manCtr = 0;\n    //distributor count\n    uint256 public disCtr = 0;\n    //retailer count\n    uint256 public retCtr = 0;\n\n    //To store information about the medicine\n    struct medicine {\n        uint256 id; //unique medicine id\n        string name; //name of the medicine\n        string description; //about medicine\n        uint256 RMSid; //id of the Raw Material supplier for this particular medicine\n        uint256 MANid; //id of the Manufacturer for this particular medicine\n        uint256 DISid; //id of the distributor for this particular medicine\n        uint256 RETid; //id of the retailer for this particular medicine\n        STAGE stage; //current medicine stage\n    }\n\n    //To store all the medicines on the blockchain\n    mapping(uint256 => medicine) public MedicineStock;\n\n    //To show status to client applications\n    function showStage(uint256 _medicineID)\n        public\n        view\n        returns (string memory)\n    {\n        require(medicineCtr > 0);\n        if (MedicineStock[_medicineID].stage == STAGE.Init)\n            return \"Medicine Ordered\";\n        else if (MedicineStock[_medicineID].stage == STAGE.RawMaterialSupply)\n            return \"Raw Material Supply Stage\";\n        else if (MedicineStock[_medicineID].stage == STAGE.Manufacture)\n            return \"Manufacturing Stage\";\n        else if (MedicineStock[_medicineID].stage == STAGE.Distribution)\n            return \"Distribution Stage\";\n        else if (MedicineStock[_medicineID].stage == STAGE.Retail)\n            return \"Retail Stage\";\n        else if (MedicineStock[_medicineID].stage == STAGE.sold)\n            return \"Medicine Sold\";\n    }\n\n    //To store information about raw material supplier\n    struct rawMaterialSupplier {\n        address addr;\n        uint256 id; //supplier id\n        string name; //Name of the raw material supplier\n        string place; //Place the raw material supplier is based in\n        bool isActive; //Status of the supplier (active/inactive)\n    }\n\n    //To store all the raw material suppliers on the blockchain\n    mapping(uint256 => rawMaterialSupplier) public RMS;\n    \n    //To check if address is already registered as RMS\n    mapping(address => bool) private rmsExists;\n\n    //To store information about manufacturer\n    struct manufacturer {\n        address addr;\n        uint256 id; //manufacturer id\n        string name; //Name of the manufacturer\n        string place; //Place the manufacturer is based in\n        bool isActive; //Status of the manufacturer (active/inactive)\n    }\n\n    //To store all the manufacturers on the blockchain\n    mapping(uint256 => manufacturer) public MAN;\n    \n    //To check if address is already registered as Manufacturer\n    mapping(address => bool) private manExists;\n\n    //To store information about distributor\n    struct distributor {\n        address addr;\n        uint256 id; //distributor id\n        string name; //Name of the distributor\n        string place; //Place the distributor is based in\n        bool isActive; //Status of the distributor (active/inactive)\n    }\n\n    //To store all the distributors on the blockchain\n    mapping(uint256 => distributor) public DIS;\n    \n    //To check if address is already registered as Distributor\n    mapping(address => bool) private disExists;\n\n    //To store information about retailer\n    struct retailer {\n        address addr;\n        uint256 id; //retailer id\n        string name; //Name of the retailer\n        string place; //Place the retailer is based in\n        bool isActive; //Status of the retailer (active/inactive)\n    }\n\n    //To store all the retailers on the blockchain\n    mapping(uint256 => retailer) public RET;\n    \n    //To check if address is already registered as Retailer\n    mapping(address => bool) private retExists;\n\n    //To add raw material suppliers. Only contract owner can add a new raw material supplier\n    function addRMS(\n        address _address,\n        string memory _name,\n        string memory _place\n    ) public onlyByOwner() {\n        require(!rmsExists[_address], \"This address is already registered as RMS\");\n        rmsCtr++;\n        RMS[rmsCtr] = rawMaterialSupplier(_address, rmsCtr, _name, _place, true);\n        rmsExists[_address] = true;\n    }\n\n    //To add manufacturer. Only contract owner can add a new manufacturer\n    function addManufacturer(\n        address _address,\n        string memory _name,\n        string memory _place\n    ) public onlyByOwner() {\n        require(!manExists[_address], \"This address is already registered as Manufacturer\");\n        manCtr++;\n        MAN[manCtr] = manufacturer(_address, manCtr, _name, _place, true);\n        manExists[_address] = true;\n    }\n\n    //To add distributor. Only contract owner can add a new distributor\n    function addDistributor(\n        address _address,\n        string memory _name,\n        string memory _place\n    ) public onlyByOwner() {\n        require(!disExists[_address], \"This address is already registered as Distributor\");\n        disCtr++;\n        DIS[disCtr] = distributor(_address, disCtr, _name, _place, true);\n        disExists[_address] = true;\n    }\n\n    //To add retailer. Only contract owner can add a new retailer\n    function addRetailer(\n        address _address,\n        string memory _name,\n        string memory _place\n    ) public onlyByOwner() {\n        require(!retExists[_address], \"This address is already registered as Retailer\");\n        retCtr++;\n        RET[retCtr] = retailer(_address, retCtr, _name, _place, true);\n        retExists[_address] = true;\n    }\n\n    //To toggle RMS active status. Only contract owner can toggle\n    function toggleRMSStatus(uint256 _id) public onlyByOwner() {\n        require(_id > 0 && _id <= rmsCtr, \"Invalid RMS ID\");\n        RMS[_id].isActive = !RMS[_id].isActive;\n    }\n\n    //To toggle Manufacturer active status. Only contract owner can toggle\n    function toggleManufacturerStatus(uint256 _id) public onlyByOwner() {\n        require(_id > 0 && _id <= manCtr, \"Invalid Manufacturer ID\");\n        MAN[_id].isActive = !MAN[_id].isActive;\n    }\n\n    //To toggle Distributor active status. Only contract owner can toggle\n    function toggleDistributorStatus(uint256 _id) public onlyByOwner() {\n        require(_id > 0 && _id <= disCtr, \"Invalid Distributor ID\");\n        DIS[_id].isActive = !DIS[_id].isActive;\n    }\n\n    //To toggle Retailer active status. Only contract owner can toggle\n    function toggleRetailerStatus(uint256 _id) public onlyByOwner() {\n        require(_id > 0 && _id <= retCtr, \"Invalid Retailer ID\");\n        RET[_id].isActive = !RET[_id].isActive;\n    }\n\n    //To supply raw materials from RMS supplier to the manufacturer\n    function RMSsupply(uint256 _medicineID) public {\n        require(_medicineID > 0 && _medicineID <= medicineCtr, \"RMSsupply: Invalid Medicine ID\");\n        uint256 _id = findRMS(msg.sender);\n        require(_id > 0, \"RMSsupply: Caller is not a registered RMS\");\n        require(RMS[_id].isActive, \"RMSsupply: Your account is deactivated\");\n        require(MedicineStock[_medicineID].stage == STAGE.Init, \"RMSsupply: Medicine not in Init stage\");\n        MedicineStock[_medicineID].RMSid = _id;\n        MedicineStock[_medicineID].stage = STAGE.RawMaterialSupply;\n    }\n\n    //To check if RMS is available and active in the blockchain\n    function findRMS(address _address) private view returns (uint256) {\n        require(rmsCtr > 0);\n        for (uint256 i = 1; i <= rmsCtr; i++) {\n            if (RMS[i].addr == _address) return RMS[i].id;\n        }\n        return 0;\n    }\n\n    //To manufacture medicine\n    function Manufacturing(uint256 _medicineID) public {\n        require(_medicineID > 0 && _medicineID <= medicineCtr, \"Manufacturing: Invalid Medicine ID\");\n        uint256 _id = findMAN(msg.sender);\n        require(_id > 0, \"Manufacturing: Caller is not a registered Manufacturer\");\n        require(MAN[_id].isActive, \"Manufacturing: Your account is deactivated\");\n        require(MedicineStock[_medicineID].stage == STAGE.RawMaterialSupply, \"Manufacturing: Medicine not in RawMaterialSupply stage\");\n        MedicineStock[_medicineID].MANid = _id;\n        MedicineStock[_medicineID].stage = STAGE.Manufacture;\n    }\n\n    //To check if Manufacturer is available and active in the blockchain\n    function findMAN(address _address) private view returns (uint256) {\n        require(manCtr > 0);\n        for (uint256 i = 1; i <= manCtr; i++) {\n            if (MAN[i].addr == _address) return MAN[i].id;\n        }\n        return 0;\n    }\n\n    //To supply medicines from Manufacturer to distributor\n    function Distribute(uint256 _medicineID) public {\n        require(_medicineID > 0 && _medicineID <= medicineCtr, \"Distribute: Invalid Medicine ID\");\n        uint256 _id = findDIS(msg.sender);\n        require(_id > 0, \"Distribute: Caller is not a registered Distributor\");\n        require(DIS[_id].isActive, \"Distribute: Your account is deactivated\");\n        require(MedicineStock[_medicineID].stage == STAGE.Manufacture, \"Distribute: Medicine not in Manufacture stage\");\n        MedicineStock[_medicineID].DISid = _id;\n        MedicineStock[_medicineID].stage = STAGE.Distribution;\n    }\n\n    //To check if distributor is available and active in the blockchain\n    function findDIS(address _address) private view returns (uint256) {\n        require(disCtr > 0);\n        for (uint256 i = 1; i <= disCtr; i++) {\n            if (DIS[i].addr == _address) return DIS[i].id;\n        }\n        return 0;\n    }\n\n    //To supply medicines from distributor to retailer\n    function Retail(uint256 _medicineID) public {\n        require(_medicineID > 0 && _medicineID <= medicineCtr, \"Retail: Invalid Medicine ID\");\n        uint256 _id = findRET(msg.sender);\n        require(_id > 0, \"Retail: Caller is not a registered Retailer\");\n        require(RET[_id].isActive, \"Retail: Your account is deactivated\");\n        require(MedicineStock[_medicineID].stage == STAGE.Distribution, \"Retail: Medicine not in Distribution stage\");\n        MedicineStock[_medicineID].RETid = _id;\n        MedicineStock[_medicineID].stage = STAGE.Retail;\n    }\n\n    //To check if retailer is available and active in the blockchain\n    function findRET(address _address) private view returns (uint256) {\n        require(retCtr > 0);\n        for (uint256 i = 1; i <= retCtr; i++) {\n            if (RET[i].addr == _address) return RET[i].id;\n        }\n        return 0;\n    }\n\n    //To sell medicines from retailer to consumer\n    function sold(uint256 _medicineID) public {\n        require(_medicineID > 0 && _medicineID <= medicineCtr, \"Sold: Invalid Medicine ID\");\n        uint256 _id = findRET(msg.sender);\n        require(_id > 0, \"Sold: Caller is not a registered Retailer\");\n        require(RET[_id].isActive, \"Sold: Your account is deactivated\");\n        require(_id == MedicineStock[_medicineID].RETid, \"Sold: Caller is not the assigned Retailer for this medicine\"); \n        require(MedicineStock[_medicineID].stage == STAGE.Retail, \"Sold: Medicine not in Retail stage\");\n        MedicineStock[_medicineID].stage = STAGE.sold;\n    }\n\n    // To add new medicines to the stock\n    function addMedicine(string memory _name, string memory _description)\n        public\n        onlyByOwner()\n    {\n        require((rmsCtr > 0) && (manCtr > 0) && (disCtr > 0) && (retCtr > 0));\n        medicineCtr++;\n        MedicineStock[medicineCtr] = medicine(\n            medicineCtr,\n            _name,\n            _description,\n            0,\n            0,\n            0,\n            0,\n            STAGE.Init\n        );\n    }\n}\n",
  "sourcePath": "C:\\Users\\ASUS\\Desktop\\SGP Always Working\\Pharma-Supply-Chain-Dapp-main\\contracts\\SupplyChain.sol",
  "compiler": {
    "name": "solc",
    "version": "0.5.16+commit.9c3226ce.Emscripten.clang"
  },
  "schemaVersion": "3.4.16",
  "updatedAt": "2025-10-31T14:43:06.751Z",
  "networkType": "ethereum",
  "devdoc": {
    "methods": {}
  },
  "userdoc": {
    "methods": {}
  }
}